{
  "contractName": "Migrations",
  "abi": [
    {
      "inputs": [],
      "stateMutability": "nonpayable",
      "type": "constructor"
    },
    {
      "inputs": [],
      "name": "last_completed_migration",
      "outputs": [
        {
          "internalType": "uint256",
          "name": "",
          "type": "uint256"
        }
      ],
      "stateMutability": "view",
      "type": "function"
    },
    {
      "inputs": [],
      "name": "owner",
      "outputs": [
        {
          "internalType": "address",
          "name": "",
          "type": "address"
        }
      ],
      "stateMutability": "view",
      "type": "function"
    },
    {
      "inputs": [
        {
          "internalType": "uint256",
          "name": "completed",
          "type": "uint256"
        }
      ],
      "name": "setCompleted",
      "outputs": [],
      "stateMutability": "nonpayable",
      "type": "function"
    },
    {
      "inputs": [
        {
          "internalType": "address",
          "name": "new_address",
          "type": "address"
        }
      ],
      "name": "upgrade",
      "outputs": [],
      "stateMutability": "nonpayable",
      "type": "function"
    }
  ],
  "bytecode": "0x608060405234801561000f575f80fd5b505f80546001600160a01b0319163317905561024c8061002e5f395ff3fe608060405234801561000f575f80fd5b506004361061004a575f3560e01c80630900f0101461004e578063445df0ac146100635780638da5cb5b1461007f578063fdacd576146100a9575b5f80fd5b61006161005c3660046101d2565b6100bc565b005b61006c60015481565b6040519081526020015b60405180910390f35b5f54610091906001600160a01b031681565b6040516001600160a01b039091168152602001610076565b6100616100b73660046101ff565b610179565b5f546001600160a01b031633146101155760405162461bcd60e51b81526020600482015260186024820152775265737472696374656420746f206f776e6572206f6e6c7960401b60448201526064015b60405180910390fd5b600154604051637ed66abb60e11b815282916001600160a01b0383169163fdacd576916101489160040190815260200190565b5f604051808303815f87803b15801561015f575f80fd5b505af1158015610171573d5f803e3d5ffd5b505050505050565b5f546001600160a01b031633146101cd5760405162461bcd60e51b81526020600482015260186024820152775265737472696374656420746f206f776e6572206f6e6c7960401b604482015260640161010c565b600155565b5f602082840312156101e2575f80fd5b81356001600160a01b03811681146101f8575f80fd5b9392505050565b5f6020828403121561020f575f80fd5b503591905056fea26469706673582212209c89bb9aea7268ebf6d07f192f689837634fe3c645a4eeb809ff8f2ceb03164e64736f6c63430008140033",
  "immutableReferences": {},
  "source": "// SPDX-License-Identifier: MIT\n\npragma solidity ^0.8.13;\n\ncontract Migrations {\n  address public owner;\n  uint256 public last_completed_migration;\n\n  modifier restricted() {\n    require(msg.sender == owner, \"Restricted to owner only\");\n    _;\n  }\n\n  constructor() {\n    owner = msg.sender;\n  }\n\n  function setCompleted(uint completed) public restricted {\n    last_completed_migration = completed;\n  }\n\n  function upgrade(address new_address) public restricted {\n    Migrations upgraded = Migrations(new_address);\n    upgraded.setCompleted(last_completed_migration);\n  }\n}\n",
  "sourcePath": "E:\\BLOCKCHAIN CLASS\\RESEARCH-PAPERS-DECENTRALIZED-SYSTEM\\RPDS\\contracts\\Migrations.sol",
  "compiler": {
    "name": "solc",
    "version": "0.8.20+commit.a1b79de6.Emscripten.clang"
  },
  "schemaVersion": "3.4.13",
  "updatedAt": "2023-05-18T04:32:30.061Z",
  "devdoc": {
    "kind": "dev",
    "methods": {},
    "version": 1
  },
  "userdoc": {
    "kind": "user",
    "methods": {},
    "version": 1
  }
}