{
  "contractName": "ResearchPapers",
  "abi": [
    {
      "inputs": [],
      "stateMutability": "nonpayable",
      "type": "constructor"
    },
    {
      "anonymous": false,
      "inputs": [
        {
          "indexed": true,
          "internalType": "address",
          "name": "from",
          "type": "address"
        },
        {
          "indexed": true,
          "internalType": "address",
          "name": "to",
          "type": "address"
        },
        {
          "indexed": false,
          "internalType": "uint256",
          "name": "value",
          "type": "uint256"
        }
      ],
      "name": "Transfer",
      "type": "event"
    },
    {
      "inputs": [
        {
          "internalType": "address",
          "name": "",
          "type": "address"
        }
      ],
      "name": "balances",
      "outputs": [
        {
          "internalType": "uint256",
          "name": "",
          "type": "uint256"
        }
      ],
      "stateMutability": "view",
      "type": "function"
    },
    {
      "inputs": [],
      "name": "conversionRate",
      "outputs": [
        {
          "internalType": "uint256",
          "name": "",
          "type": "uint256"
        }
      ],
      "stateMutability": "view",
      "type": "function"
    },
    {
      "inputs": [],
      "name": "decimals",
      "outputs": [
        {
          "internalType": "uint8",
          "name": "",
          "type": "uint8"
        }
      ],
      "stateMutability": "view",
      "type": "function"
    },
    {
      "inputs": [],
      "name": "name",
      "outputs": [
        {
          "internalType": "string",
          "name": "",
          "type": "string"
        }
      ],
      "stateMutability": "view",
      "type": "function"
    },
    {
      "inputs": [
        {
          "internalType": "bytes32",
          "name": "",
          "type": "bytes32"
        }
      ],
      "name": "papers",
      "outputs": [
        {
          "internalType": "string",
          "name": "title",
          "type": "string"
        },
        {
          "internalType": "string",
          "name": "author",
          "type": "string"
        },
        {
          "internalType": "string",
          "name": "ipfsHash",
          "type": "string"
        },
        {
          "internalType": "uint256",
          "name": "timestamp",
          "type": "uint256"
        }
      ],
      "stateMutability": "view",
      "type": "function"
    },
    {
      "inputs": [],
      "name": "symbol",
      "outputs": [
        {
          "internalType": "string",
          "name": "",
          "type": "string"
        }
      ],
      "stateMutability": "view",
      "type": "function"
    },
    {
      "inputs": [],
      "name": "totalSupply",
      "outputs": [
        {
          "internalType": "uint256",
          "name": "",
          "type": "uint256"
        }
      ],
      "stateMutability": "view",
      "type": "function"
    },
    {
      "inputs": [
        {
          "internalType": "string",
          "name": "_title",
          "type": "string"
        },
        {
          "internalType": "string",
          "name": "_author",
          "type": "string"
        },
        {
          "internalType": "string",
          "name": "_ipfsHash",
          "type": "string"
        }
      ],
      "name": "publishPaper",
      "outputs": [
        {
          "internalType": "bool",
          "name": "",
          "type": "bool"
        }
      ],
      "stateMutability": "nonpayable",
      "type": "function"
    },
    {
      "inputs": [
        {
          "internalType": "string",
          "name": "_title",
          "type": "string"
        },
        {
          "internalType": "string",
          "name": "_author",
          "type": "string"
        },
        {
          "internalType": "string",
          "name": "_ipfsHash",
          "type": "string"
        }
      ],
      "name": "getPaper",
      "outputs": [
        {
          "internalType": "string",
          "name": "",
          "type": "string"
        }
      ],
      "stateMutability": "view",
      "type": "function"
    },
    {
      "inputs": [],
      "name": "buyISP",
      "outputs": [
        {
          "internalType": "bool",
          "name": "",
          "type": "bool"
        }
      ],
      "stateMutability": "payable",
      "type": "function"
    },
    {
      "inputs": [
        {
          "internalType": "string",
          "name": "_title",
          "type": "string"
        },
        {
          "internalType": "string",
          "name": "_author",
          "type": "string"
        },
        {
          "internalType": "string",
          "name": "_ipfsHash",
          "type": "string"
        }
      ],
      "name": "viewPaper",
      "outputs": [
        {
          "internalType": "bool",
          "name": "",
          "type": "bool"
        }
      ],
      "stateMutability": "nonpayable",
      "type": "function"
    },
    {
      "inputs": [],
      "name": "withdraw",
      "outputs": [
        {
          "internalType": "bool",
          "name": "",
          "type": "bool"
        }
      ],
      "stateMutability": "nonpayable",
      "type": "function"
    }
  ],
  "bytecode": "0x6080604052620f4240600255670de0b6b3a7640000600355348015610022575f80fd5b50610d87806100305f395ff3fe6080604052600436106100a5575f3560e01c80633ccfd60b116100625780633ccfd60b146101b55780635132c85b146101d95780637ffdf53e146101e15780638640e18c146101f6578063905f32dc1461021557806395d89b4114610234575f80fd5b806306fdde03146100a95780631790791e146100f357806318160ddd1461011257806327e235e3146101355780632ad4220114610160578063313ce5671461018f575b5f80fd5b3480156100b4575f80fd5b506100dd6040518060400160405280600981526020016824a9a8102a37b5b2b760b91b81525081565b6040516100ea9190610954565b60405180910390f35b3480156100fe575f80fd5b506100dd61010d366004610a0a565b610262565b34801561011d575f80fd5b5061012760025481565b6040519081526020016100ea565b348015610140575f80fd5b5061012761014f366004610a8c565b60016020525f908152604090205481565b34801561016b575f80fd5b5061017f61017a366004610ab2565b61036e565b6040516100ea9493929190610ac9565b34801561019a575f80fd5b506101a3601281565b60405160ff90911681526020016100ea565b3480156101c0575f80fd5b506101c9610527565b60405190151581526020016100ea565b6101c961059f565b3480156101ec575f80fd5b5061012760035481565b348015610201575f80fd5b506101c9610210366004610a0a565b6106eb565b348015610220575f80fd5b506101c961022f366004610a0a565b6107ed565b34801561023f575f80fd5b506100dd6040518060400160405280600381526020016204953560ec1b81525081565b60605f84848460405160200161027a93929190610b13565b6040516020818303038152906040528051906020012090505f808281526020019081526020015f20600301545f036102cd5760405162461bcd60e51b81526004016102c490610b55565b60405180910390fd5b5f81815260208190526040902060020180546102e890610b9b565b80601f016020809104026020016040519081016040528092919081815260200182805461031490610b9b565b801561035f5780601f106103365761010080835404028352916020019161035f565b820191905f5260205f20905b81548152906001019060200180831161034257829003601f168201915b50505050509150509392505050565b5f6020819052908152604090208054819061038890610b9b565b80601f01602080910402602001604051908101604052809291908181526020018280546103b490610b9b565b80156103ff5780601f106103d6576101008083540402835291602001916103ff565b820191905f5260205f20905b8154815290600101906020018083116103e257829003601f168201915b50505050509080600101805461041490610b9b565b80601f016020809104026020016040519081016040528092919081815260200182805461044090610b9b565b801561048b5780601f106104625761010080835404028352916020019161048b565b820191905f5260205f20905b81548152906001019060200180831161046e57829003601f168201915b5050505050908060020180546104a090610b9b565b80601f01602080910402602001604051908101604052809291908181526020018280546104cc90610b9b565b80156105175780601f106104ee57610100808354040283529160200191610517565b820191905f5260205f20905b8154815290600101906020018083116104fa57829003601f168201915b5050505050908060030154905084565b5f478061056c5760405162461bcd60e51b815260206004820152601360248201527224b739bab33334b1b4b2b73a10333ab732399760691b60448201526064016102c4565b604051339082156108fc029083905f818181858888f19350505050158015610596573d5f803e3d5ffd5b50600191505090565b5f80600354346105af9190610be7565b90505f81116105f65760405162461bcd60e51b815260206004820152601360248201527224b739bab33334b1b4b2b73a10333ab732399760691b60448201526064016102c4565b305f908152600160205260409020548111156106665760405162461bcd60e51b815260206004820152602960248201527f4e6f7420656e6f75676820746f6b656e7320617661696c61626c6520666f7220604482015268383ab931b430b9b29760b91b60648201526084016102c4565b335f9081526001602052604081208054839290610684908490610c06565b9091555050305f90815260016020526040812080548392906106a7908490610c1f565b9091555050604051818152339030907fddf252ad1be2c89b69c2b068fc378daa952ba7f163c4a11628f55a4df523b3ef9060200160405180910390a3600191505090565b5f8084848460405160200161070293929190610b13565b6040516020818303038152906040528051906020012090505f808281526020019081526020015f20600301545f0361074c5760405162461bcd60e51b81526004016102c490610b55565b335f908152600160205260409020546107c35760405162461bcd60e51b815260206004820152603360248201527f596f75206e65656420746f2070757263686173652049535020746f6b656e73206044820152723a37903b34b2bb903a3434b9903830b832b91760691b60648201526084016102c4565b335f9081526001602052604081208054916107dd83610c32565b9091555060019695505050505050565b5f8084848460405160200161080493929190610b13565b60408051601f1981840301815291815281516020928301205f81815292839052912060030154909150156108895760405162461bcd60e51b815260206004820152602660248201527f546869732070617065722068617320616c7265616479206265656e207075626c60448201526534b9b432b21760d11b60648201526084016102c4565b6040805160808101825286815260208082018790528183018690524260608301525f8481529081905291909120815181906108c49082610c95565b50602082015160018201906108d99082610c95565b50604082015160028201906108ee9082610c95565b5060609190910151600390910155506001949350505050565b5f5b83811015610921578181015183820152602001610909565b50505f910152565b5f8151808452610940816020860160208601610907565b601f01601f19169290920160200192915050565b602081525f6109666020830184610929565b9392505050565b634e487b7160e01b5f52604160045260245ffd5b5f82601f830112610990575f80fd5b813567ffffffffffffffff808211156109ab576109ab61096d565b604051601f8301601f19908116603f011681019082821181831017156109d3576109d361096d565b816040528381528660208588010111156109eb575f80fd5b836020870160208301375f602085830101528094505050505092915050565b5f805f60608486031215610a1c575f80fd5b833567ffffffffffffffff80821115610a33575f80fd5b610a3f87838801610981565b94506020860135915080821115610a54575f80fd5b610a6087838801610981565b93506040860135915080821115610a75575f80fd5b50610a8286828701610981565b9150509250925092565b5f60208284031215610a9c575f80fd5b81356001600160a01b0381168114610966575f80fd5b5f60208284031215610ac2575f80fd5b5035919050565b608081525f610adb6080830187610929565b8281036020840152610aed8187610929565b90508281036040840152610b018186610929565b91505082606083015295945050505050565b5f8451610b24818460208901610907565b845190830190610b38818360208901610907565b8451910190610b4b818360208801610907565b0195945050505050565b60208082526026908201527f5468697320706170657220686173206e6f74206265656e207075626c6973686560408201526532103cb2ba1760d11b606082015260800190565b600181811c90821680610baf57607f821691505b602082108103610bcd57634e487b7160e01b5f52602260045260245ffd5b50919050565b634e487b7160e01b5f52601160045260245ffd5b5f82610c0157634e487b7160e01b5f52601260045260245ffd5b500490565b80820180821115610c1957610c19610bd3565b92915050565b81810381811115610c1957610c19610bd3565b5f81610c4057610c40610bd3565b505f190190565b601f821115610c90575f81815260208120601f850160051c81016020861015610c6d5750805b601f850160051c820191505b81811015610c8c57828155600101610c79565b5050505b505050565b815167ffffffffffffffff811115610caf57610caf61096d565b610cc381610cbd8454610b9b565b84610c47565b602080601f831160018114610cf6575f8415610cdf5750858301515b5f19600386901b1c1916600185901b178555610c8c565b5f85815260208120601f198616915b82811015610d2457888601518255948401946001909101908401610d05565b5085821015610d4157878501515f19600388901b60f8161c191681555b5050505050600190811b0190555056fea2646970667358221220e9ad9156b41e86562c3b8fcec1360da5a62e760590f9d1e412d7b6759e38434964736f6c63430008140033",
  "immutableReferences": {},
  "source": "// SPDX-License-Identifier: MIT\r\n\r\npragma solidity ^0.8.13;\r\n\r\ncontract ResearchPapers {\r\n\r\n    // Struct to store details of each paper\r\n    struct Paper {\r\n        string title;\r\n        string author;\r\n        string ipfsHash;\r\n        uint timestamp;\r\n    }\r\n\r\n    // Mapping to store papers by hash\r\n    mapping (bytes32 => Paper) public papers;\r\n\r\n    // Mapping to store ISP token balances by address\r\n    mapping (address => uint256) public balances;\r\n\r\n    // Total supply of ISP tokens\r\n    uint256 public totalSupply = 1000000;\r\n\r\n    // Conversion rate from wei to ISP tokens\r\n    uint256 public conversionRate = 1 ether;\r\n\r\n    // Token details\r\n    string public constant name = \"ISP Token\";\r\n    string public constant symbol = \"ISP\";\r\n    uint8 public constant decimals = 18;\r\n\r\n    // Event emitted on token transfer\r\n    event Transfer(address indexed from, address indexed to, uint256 value);\r\n\r\n    // Constructor to set initial ISP token balance for contract owner\r\n    constructor() {\r\n        //balances[msg.sender] = totalSupply * conversionRate;\r\n    }\r\n\r\n    // Function to publish a research paper\r\n    function publishPaper(string memory _title, string memory _author, string memory _ipfsHash) public returns (bool) {\r\n        bytes32 paperHash = keccak256(abi.encodePacked(_title, _author, _ipfsHash));\r\n        // Make sure paper has not already been published\r\n        require(papers[paperHash].timestamp == 0, \"This paper has already been published.\");\r\n\r\n        // Store paper details\r\n        papers[paperHash] = Paper({\r\n            title: _title,\r\n            author: _author,\r\n            ipfsHash: _ipfsHash,\r\n            timestamp: block.timestamp\r\n        });\r\n\r\n        return true;\r\n    }\r\n\r\n    // Function to get the IPFS hash of a published paper\r\n    function getPaper(string memory _title, string memory _author, string memory _ipfsHash) public view returns (string memory) {\r\n        bytes32 paperHash = keccak256(abi.encodePacked(_title, _author, _ipfsHash));\r\n        // Make sure paper has been published\r\n        require(papers[paperHash].timestamp != 0, \"This paper has not been published yet.\");\r\n\r\n        return papers[paperHash].ipfsHash;\r\n    }\r\n\r\n    // Function to purchase ISP tokens\r\n    function buyISP() public payable returns (bool) {\r\n        uint256 amount = msg.value / conversionRate;\r\n        // Make sure payment amount is greater than zero\r\n        require(amount > 0, \"Insufficient funds.\");\r\n        // Make sure enough tokens are available for purchase\r\n        require(amount <= balances[address(this)], \"Not enough tokens available for purchase.\");\r\n\r\n        // Update token balances\r\n        balances[msg.sender] += amount;\r\n        balances[address(this)] -= amount;\r\n\r\n        // Emit transfer event\r\n        emit Transfer(address(this), msg.sender, amount);\r\n\r\n        return true;\r\n    }\r\n\r\n    // Function to view a published paper\r\n    function viewPaper(string memory _title, string memory _author, string memory _ipfsHash) public returns (bool) {\r\n        bytes32 paperHash = keccak256(abi.encodePacked(_title, _author, _ipfsHash));\r\n        // Make sure paper has been published\r\n        require(papers[paperHash].timestamp != 0, \"This paper has not been published yet.\");\r\n        // Make sure user has enough ISP tokens to view paper\r\n        require(balances[msg.sender] > 0, \"You need to purchase ISP tokens to view this paper.\");\r\n\r\n        balances[msg.sender]--;\r\n\r\n        return true;\r\n    }\r\n\r\n    // Function to withdraw funds from contract balance\r\n    function withdraw() public returns (bool) {\r\n        uint256 amount = address(this).balance;\r\n        // Make sure balance is greater than zero\r\n        require(amount > 0, \"Insufficient funds.\");\r\n\r\n        // Transfer balance to sender address\r\n        payable(msg.sender).transfer(amount);\r\n\r\n        return true;\r\n    }\r\n\r\n}\r\n",
  "sourcePath": "E:\\BLOCKCHAIN CLASS\\RESEARCH-PAPERS-DECENTRALIZED-SYSTEM\\RPDS\\contracts\\researchpaper.sol",
  "compiler": {
    "name": "solc",
    "version": "0.8.20+commit.a1b79de6.Emscripten.clang"
  },
  "schemaVersion": "3.4.14",
  "updatedAt": "2023-05-23T15:52:16.347Z",
  "devdoc": {
    "kind": "dev",
    "methods": {},
    "version": 1
  },
  "userdoc": {
    "kind": "user",
    "methods": {},
    "version": 1
  }
}