{
  "contractName": "ResearchPapers",
  "abi": [
    {
      "inputs": [],
      "stateMutability": "nonpayable",
      "type": "constructor"
    },
    {
      "anonymous": false,
      "inputs": [
        {
          "indexed": true,
          "internalType": "address",
          "name": "from",
          "type": "address"
        },
        {
          "indexed": true,
          "internalType": "address",
          "name": "to",
          "type": "address"
        },
        {
          "indexed": false,
          "internalType": "uint256",
          "name": "value",
          "type": "uint256"
        }
      ],
      "name": "Transfer",
      "type": "event"
    },
    {
      "inputs": [
        {
          "internalType": "address",
          "name": "",
          "type": "address"
        }
      ],
      "name": "balances",
      "outputs": [
        {
          "internalType": "uint256",
          "name": "",
          "type": "uint256"
        }
      ],
      "stateMutability": "view",
      "type": "function"
    },
    {
      "inputs": [],
      "name": "conversionRate",
      "outputs": [
        {
          "internalType": "uint256",
          "name": "",
          "type": "uint256"
        }
      ],
      "stateMutability": "view",
      "type": "function"
    },
    {
      "inputs": [],
      "name": "decimals",
      "outputs": [
        {
          "internalType": "uint8",
          "name": "",
          "type": "uint8"
        }
      ],
      "stateMutability": "view",
      "type": "function"
    },
    {
      "inputs": [],
      "name": "name",
      "outputs": [
        {
          "internalType": "string",
          "name": "",
          "type": "string"
        }
      ],
      "stateMutability": "view",
      "type": "function"
    },
    {
      "inputs": [
        {
          "internalType": "bytes32",
          "name": "",
          "type": "bytes32"
        }
      ],
      "name": "papers",
      "outputs": [
        {
          "internalType": "string",
          "name": "title",
          "type": "string"
        },
        {
          "internalType": "string",
          "name": "author",
          "type": "string"
        },
        {
          "internalType": "string",
          "name": "ipfsHash",
          "type": "string"
        },
        {
          "internalType": "uint256",
          "name": "timestamp",
          "type": "uint256"
        }
      ],
      "stateMutability": "view",
      "type": "function"
    },
    {
      "inputs": [],
      "name": "symbol",
      "outputs": [
        {
          "internalType": "string",
          "name": "",
          "type": "string"
        }
      ],
      "stateMutability": "view",
      "type": "function"
    },
    {
      "inputs": [],
      "name": "totalSupply",
      "outputs": [
        {
          "internalType": "uint256",
          "name": "",
          "type": "uint256"
        }
      ],
      "stateMutability": "view",
      "type": "function"
    },
    {
      "inputs": [
        {
          "internalType": "string",
          "name": "_title",
          "type": "string"
        },
        {
          "internalType": "string",
          "name": "_author",
          "type": "string"
        },
        {
          "internalType": "string",
          "name": "_ipfsHash",
          "type": "string"
        }
      ],
      "name": "publishPaper",
      "outputs": [
        {
          "internalType": "bool",
          "name": "",
          "type": "bool"
        }
      ],
      "stateMutability": "nonpayable",
      "type": "function"
    },
    {
      "inputs": [
        {
          "internalType": "string",
          "name": "_title",
          "type": "string"
        },
        {
          "internalType": "string",
          "name": "_author",
          "type": "string"
        },
        {
          "internalType": "string",
          "name": "_ipfsHash",
          "type": "string"
        }
      ],
      "name": "getPaper",
      "outputs": [
        {
          "internalType": "string",
          "name": "",
          "type": "string"
        }
      ],
      "stateMutability": "view",
      "type": "function"
    },
    {
      "inputs": [],
      "name": "buyISP",
      "outputs": [
        {
          "internalType": "bool",
          "name": "",
          "type": "bool"
        }
      ],
      "stateMutability": "payable",
      "type": "function"
    },
    {
      "inputs": [
        {
          "internalType": "string",
          "name": "_title",
          "type": "string"
        },
        {
          "internalType": "string",
          "name": "_author",
          "type": "string"
        },
        {
          "internalType": "string",
          "name": "_ipfsHash",
          "type": "string"
        }
      ],
      "name": "viewPaper",
      "outputs": [
        {
          "internalType": "bool",
          "name": "",
          "type": "bool"
        }
      ],
      "stateMutability": "nonpayable",
      "type": "function"
    },
    {
      "inputs": [],
      "name": "withdraw",
      "outputs": [
        {
          "internalType": "bool",
          "name": "",
          "type": "bool"
        }
      ],
      "stateMutability": "nonpayable",
      "type": "function"
    }
  ],
  "bytecode": "0x6080604052620f4240600255670de0b6b3a764000060035534801561002357600080fd5b506003546002546100349190610049565b33600090815260016020526040902055610074565b808202811582820484141761006e57634e487b7160e01b600052601160045260246000fd5b92915050565b610ddb806100836000396000f3fe6080604052600436106100a75760003560e01c80633ccfd60b116100645780633ccfd60b146101bf5780635132c85b146101e45780637ffdf53e146101ec5780638640e18c14610202578063905f32dc1461022257806395d89b411461024257600080fd5b806306fdde03146100ac5780631790791e146100f757806318160ddd1461011757806327e235e31461013b5780632ad4220114610168578063313ce56714610198575b600080fd5b3480156100b857600080fd5b506100e16040518060400160405280600981526020016824a9a8102a37b5b2b760b91b81525081565b6040516100ee9190610986565b60405180910390f35b34801561010357600080fd5b506100e1610112366004610a43565b610271565b34801561012357600080fd5b5061012d60025481565b6040519081526020016100ee565b34801561014757600080fd5b5061012d610156366004610acb565b60016020526000908152604090205481565b34801561017457600080fd5b50610188610183366004610af4565b610384565b6040516100ee9493929190610b0d565b3480156101a457600080fd5b506101ad601281565b60405160ff90911681526020016100ee565b3480156101cb57600080fd5b506101d4610544565b60405190151581526020016100ee565b6101d46105c0565b3480156101f857600080fd5b5061012d60035481565b34801561020e57600080fd5b506101d461021d366004610a43565b610711565b34801561022e57600080fd5b506101d461023d366004610a43565b610819565b34801561024e57600080fd5b506100e16040518060400160405280600381526020016204953560ec1b81525081565b6060600084848460405160200161028a93929190610b58565b604051602081830303815290604052805190602001209050600080828152602001908152602001600020600301546000036102e05760405162461bcd60e51b81526004016102d790610b9b565b60405180910390fd5b600081815260208190526040902060020180546102fc90610be1565b80601f016020809104026020016040519081016040528092919081815260200182805461032890610be1565b80156103755780601f1061034a57610100808354040283529160200191610375565b820191906000526020600020905b81548152906001019060200180831161035857829003601f168201915b50505050509150509392505050565b60006020819052908152604090208054819061039f90610be1565b80601f01602080910402602001604051908101604052809291908181526020018280546103cb90610be1565b80156104185780601f106103ed57610100808354040283529160200191610418565b820191906000526020600020905b8154815290600101906020018083116103fb57829003601f168201915b50505050509080600101805461042d90610be1565b80601f016020809104026020016040519081016040528092919081815260200182805461045990610be1565b80156104a65780601f1061047b576101008083540402835291602001916104a6565b820191906000526020600020905b81548152906001019060200180831161048957829003601f168201915b5050505050908060020180546104bb90610be1565b80601f01602080910402602001604051908101604052809291908181526020018280546104e790610be1565b80156105345780601f1061050957610100808354040283529160200191610534565b820191906000526020600020905b81548152906001019060200180831161051757829003601f168201915b5050505050908060030154905084565b6000478061058a5760405162461bcd60e51b815260206004820152601360248201527224b739bab33334b1b4b2b73a10333ab732399760691b60448201526064016102d7565b604051339082156108fc029083906000818181858888f193505050501580156105b7573d6000803e3d6000fd5b50600191505090565b600080600354346105d19190610c31565b9050600081116106195760405162461bcd60e51b815260206004820152601360248201527224b739bab33334b1b4b2b73a10333ab732399760691b60448201526064016102d7565b3060009081526001602052604090205481111561068a5760405162461bcd60e51b815260206004820152602960248201527f4e6f7420656e6f75676820746f6b656e7320617661696c61626c6520666f7220604482015268383ab931b430b9b29760b91b60648201526084016102d7565b33600090815260016020526040812080548392906106a9908490610c53565b909155505030600090815260016020526040812080548392906106cd908490610c6c565b9091555050604051818152339030907fddf252ad1be2c89b69c2b068fc378daa952ba7f163c4a11628f55a4df523b3ef9060200160405180910390a3600191505090565b60008084848460405160200161072993929190610b58565b604051602081830303815290604052805190602001209050600080828152602001908152602001600020600301546000036107765760405162461bcd60e51b81526004016102d790610b9b565b336000908152600160205260409020546107ee5760405162461bcd60e51b815260206004820152603360248201527f596f75206e65656420746f2070757263686173652049535020746f6b656e73206044820152723a37903b34b2bb903a3434b9903830b832b91760691b60648201526084016102d7565b33600090815260016020526040812080549161080983610c7f565b9091555060019695505050505050565b60008084848460405160200161083193929190610b58565b60408051601f198184030181529181528151602092830120600081815292839052912060030154909150156108b75760405162461bcd60e51b815260206004820152602660248201527f546869732070617065722068617320616c7265616479206265656e207075626c60448201526534b9b432b21760d11b60648201526084016102d7565b60408051608081018252868152602080820187905281830186905242606083015260008481529081905291909120815181906108f39082610ce5565b50602082015160018201906109089082610ce5565b506040820151600282019061091d9082610ce5565b5060609190910151600390910155506001949350505050565b60005b83811015610951578181015183820152602001610939565b50506000910152565b60008151808452610972816020860160208601610936565b601f01601f19169290920160200192915050565b602081526000610999602083018461095a565b9392505050565b634e487b7160e01b600052604160045260246000fd5b600082601f8301126109c757600080fd5b813567ffffffffffffffff808211156109e2576109e26109a0565b604051601f8301601f19908116603f01168101908282118183101715610a0a57610a0a6109a0565b81604052838152866020858801011115610a2357600080fd5b836020870160208301376000602085830101528094505050505092915050565b600080600060608486031215610a5857600080fd5b833567ffffffffffffffff80821115610a7057600080fd5b610a7c878388016109b6565b94506020860135915080821115610a9257600080fd5b610a9e878388016109b6565b93506040860135915080821115610ab457600080fd5b50610ac1868287016109b6565b9150509250925092565b600060208284031215610add57600080fd5b81356001600160a01b038116811461099957600080fd5b600060208284031215610b0657600080fd5b5035919050565b608081526000610b20608083018761095a565b8281036020840152610b32818761095a565b90508281036040840152610b46818661095a565b91505082606083015295945050505050565b60008451610b6a818460208901610936565b845190830190610b7e818360208901610936565b8451910190610b91818360208801610936565b0195945050505050565b60208082526026908201527f5468697320706170657220686173206e6f74206265656e207075626c6973686560408201526532103cb2ba1760d11b606082015260800190565b600181811c90821680610bf557607f821691505b602082108103610c1557634e487b7160e01b600052602260045260246000fd5b50919050565b634e487b7160e01b600052601160045260246000fd5b600082610c4e57634e487b7160e01b600052601260045260246000fd5b500490565b80820180821115610c6657610c66610c1b565b92915050565b81810381811115610c6657610c66610c1b565b600081610c8e57610c8e610c1b565b506000190190565b601f821115610ce057600081815260208120601f850160051c81016020861015610cbd5750805b601f850160051c820191505b81811015610cdc57828155600101610cc9565b5050505b505050565b815167ffffffffffffffff811115610cff57610cff6109a0565b610d1381610d0d8454610be1565b84610c96565b602080601f831160018114610d485760008415610d305750858301515b600019600386901b1c1916600185901b178555610cdc565b600085815260208120601f198616915b82811015610d7757888601518255948401946001909101908401610d58565b5085821015610d955787850151600019600388901b60f8161c191681555b5050505050600190811b0190555056fea264697066735822122017cc1b159d6ffedade49e54ecaa780611adff0b5ad51646f199511e5a5c3accb64736f6c63430008130033",
  "immutableReferences": {},
  "source": "// SPDX-License-Identifier: MIT\n\npragma solidity ^0.8.9;\n\ncontract ResearchPapers {\n\n    // Struct to store details of each paper\n    struct Paper {\n        string title;\n        string author;\n        string ipfsHash;\n        uint timestamp;\n    }\n\n    // Mapping to store papers by hash\n    mapping (bytes32 => Paper) public papers;\n\n    // Mapping to store ISP token balances by address\n    mapping (address => uint256) public balances;\n\n    // Total supply of ISP tokens\n    uint256 public totalSupply = 1000000;\n\n    // Conversion rate from wei to ISP tokens\n    uint256 public conversionRate = 1 ether;\n\n    // Token details\n    string public constant name = \"ISP Token\";\n    string public constant symbol = \"ISP\";\n    uint8 public constant decimals = 18;\n\n    // Event emitted on token transfer\n    event Transfer(address indexed from, address indexed to, uint256 value);\n\n    // Constructor to set initial ISP token balance for contract owner\n    constructor() {\n        balances[msg.sender] = totalSupply * conversionRate;\n    }\n\n    // Function to publish a research paper\n    function publishPaper(string memory _title, string memory _author, string memory _ipfsHash) public returns (bool) {\n        bytes32 paperHash = keccak256(abi.encodePacked(_title, _author, _ipfsHash));\n        // Make sure paper has not already been published\n        require(papers[paperHash].timestamp == 0, \"This paper has already been published.\");\n\n        // Store paper details\n        papers[paperHash] = Paper({\n            title: _title,\n            author: _author,\n            ipfsHash: _ipfsHash,\n            timestamp: block.timestamp\n        });\n\n        return true;\n    }\n\n    // Function to get the IPFS hash of a published paper\n    function getPaper(string memory _title, string memory _author, string memory _ipfsHash) public view returns (string memory) {\n        bytes32 paperHash = keccak256(abi.encodePacked(_title, _author, _ipfsHash));\n        // Make sure paper has been published\n        require(papers[paperHash].timestamp != 0, \"This paper has not been published yet.\");\n\n        return papers[paperHash].ipfsHash;\n    }\n\n    // Function to purchase ISP tokens\n    function buyISP() public payable returns (bool) {\n        uint256 amount = msg.value / conversionRate;\n        // Make sure payment amount is greater than zero\n        require(amount > 0, \"Insufficient funds.\");\n        // Make sure enough tokens are available for purchase\n        require(amount <= balances[address(this)], \"Not enough tokens available for purchase.\");\n\n        // Update token balances\n        balances[msg.sender] += amount;\n        balances[address(this)] -= amount;\n\n        // Emit transfer event\n        emit Transfer(address(this), msg.sender, amount);\n\n        return true;\n    }\n\n    // Function to view a published paper\n    function viewPaper(string memory _title, string memory _author, string memory _ipfsHash) public returns (bool) {\n        bytes32 paperHash = keccak256(abi.encodePacked(_title, _author, _ipfsHash));\n        // Make sure paper has been published\n        require(papers[paperHash].timestamp != 0, \"This paper has not been published yet.\");\n        // Make sure user has enough ISP tokens to view paper\n        require(balances[msg.sender] > 0, \"You need to purchase ISP tokens to view this paper.\");\n\n        balances[msg.sender]--;\n\n        return true;\n    }\n\n    // Function to withdraw funds from contract balance\n    function withdraw() public returns (bool) {\n        uint256 amount = address(this).balance;\n        // Make sure balance is greater than zero\n        require(amount > 0, \"Insufficient funds.\");\n\n        // Transfer balance to sender address\n        payable(msg.sender).transfer(amount);\n\n        return true;\n    }\n\n}\n",
  "sourcePath": "/home/intelligence/Desktop/RESEARCH-PAPERS-DECENTRALIZED-SYSTEM/RPDS/contracts/researchpaper.sol",
  "compiler": {
    "name": "solc",
    "version": "0.8.19+commit.7dd6d404.Emscripten.clang"
  },
  "schemaVersion": "3.4.13",
  "updatedAt": "2023-05-10T00:18:20.683Z",
  "devdoc": {
    "kind": "dev",
    "methods": {},
    "version": 1
  },
  "userdoc": {
    "kind": "user",
    "methods": {},
    "version": 1
  }
}